{
  "contractName": "SpiroRapidoAgreement",
  "abi": [
    {
      "inputs": [],
      "stateMutability": "nonpayable",
      "type": "constructor"
    },
    {
      "anonymous": false,
      "inputs": [
        {
          "indexed": false,
          "internalType": "address",
          "name": "signer",
          "type": "address"
        }
      ],
      "name": "AgreementSigned",
      "type": "event"
    },
    {
      "inputs": [],
      "name": "agreementHash",
      "outputs": [
        {
          "internalType": "string",
          "name": "",
          "type": "string"
        }
      ],
      "stateMutability": "view",
      "type": "function",
      "constant": true
    },
    {
      "inputs": [],
      "name": "rapido",
      "outputs": [
        {
          "internalType": "address",
          "name": "",
          "type": "address"
        }
      ],
      "stateMutability": "view",
      "type": "function",
      "constant": true
    },
    {
      "inputs": [],
      "name": "rapidoSigned",
      "outputs": [
        {
          "internalType": "bool",
          "name": "",
          "type": "bool"
        }
      ],
      "stateMutability": "view",
      "type": "function",
      "constant": true
    },
    {
      "inputs": [],
      "name": "spiro",
      "outputs": [
        {
          "internalType": "address",
          "name": "",
          "type": "address"
        }
      ],
      "stateMutability": "view",
      "type": "function",
      "constant": true
    },
    {
      "inputs": [],
      "name": "spiroSigned",
      "outputs": [
        {
          "internalType": "bool",
          "name": "",
          "type": "bool"
        }
      ],
      "stateMutability": "view",
      "type": "function",
      "constant": true
    },
    {
      "inputs": [
        {
          "internalType": "string",
          "name": "_agreementHash",
          "type": "string"
        }
      ],
      "name": "signAsSpiro",
      "outputs": [],
      "stateMutability": "nonpayable",
      "type": "function"
    },
    {
      "inputs": [],
      "name": "signAsRapido",
      "outputs": [],
      "stateMutability": "nonpayable",
      "type": "function"
    },
    {
      "inputs": [],
      "name": "isAgreementComplete",
      "outputs": [
        {
          "internalType": "bool",
          "name": "",
          "type": "bool"
        }
      ],
      "stateMutability": "view",
      "type": "function",
      "constant": true
    }
  ],
  "bytecode": "0x608060405234801561001057600080fd5b50336000806101000a81548173ffffffffffffffffffffffffffffffffffffffff021916908373ffffffffffffffffffffffffffffffffffffffff160217905550610941806100606000396000f3fe608060405234801561001057600080fd5b50600436106100885760003560e01c806391d373161161005b57806391d37316146100f15780639c4ee67c1461010f578063b751f2431461012d578063d696b3f11461014957610088565b80630ab55d0b1461008d5780634aeff0d3146100ab5780635346d185146100b55780636674e6b4146100d3575b600080fd5b610095610167565b6040516100a2919061070b565b60405180910390f35b6100b36101f5565b005b6100bd610319565b6040516100ca91906106f0565b60405180910390f35b6100db61032c565b6040516100e891906106d5565b60405180910390f35b6100f9610350565b60405161010691906106d5565b60405180910390f35b610117610376565b60405161012491906106f0565b60405180910390f35b610147600480360381019061014291906105bd565b6103a5565b005b61015161049f565b60405161015e91906106f0565b60405180910390f35b600280546101749061086a565b80601f01602080910402602001604051908101604052809291908181526020018280546101a09061086a565b80156101ed5780601f106101c2576101008083540402835291602001916101ed565b820191906000526020600020905b8154815290600101906020018083116101d057829003601f168201915b505050505081565b60008054906101000a900473ffffffffffffffffffffffffffffffffffffffff1673ffffffffffffffffffffffffffffffffffffffff163373ffffffffffffffffffffffffffffffffffffffff161415610284576040517f08c379a000000000000000000000000000000000000000000000000000000000815260040161027b9061072d565b60405180910390fd5b33600160006101000a81548173ffffffffffffffffffffffffffffffffffffffff021916908373ffffffffffffffffffffffffffffffffffffffff1602179055506001600360016101000a81548160ff0219169083151502179055507f5cca47fc45be2c2c68100afd7cd2431116c0c535c159e4f6c7e63934cf9f7aad3360405161030f91906106d5565b60405180910390a1565b600360009054906101000a900460ff1681565b60008054906101000a900473ffffffffffffffffffffffffffffffffffffffff1681565b600160009054906101000a900473ffffffffffffffffffffffffffffffffffffffff1681565b6000600360009054906101000a900460ff1680156103a05750600360019054906101000a900460ff165b905090565b60008054906101000a900473ffffffffffffffffffffffffffffffffffffffff1673ffffffffffffffffffffffffffffffffffffffff163373ffffffffffffffffffffffffffffffffffffffff1614610433576040517f08c379a000000000000000000000000000000000000000000000000000000000815260040161042a9061074d565b60405180910390fd5b80600290805190602001906104499291906104b2565b506001600360006101000a81548160ff0219169083151502179055507f5cca47fc45be2c2c68100afd7cd2431116c0c535c159e4f6c7e63934cf9f7aad3360405161049491906106d5565b60405180910390a150565b600360019054906101000a900460ff1681565b8280546104be9061086a565b90600052602060002090601f0160209004810192826104e05760008555610527565b82601f106104f957805160ff1916838001178555610527565b82800160010185558215610527579182015b8281111561052657825182559160200191906001019061050b565b5b5090506105349190610538565b5090565b5b80821115610551576000816000905550600101610539565b5090565b60006105686105638461079e565b61076d565b90508281526020810184848401111561058057600080fd5b61058b848285610828565b509392505050565b600082601f8301126105a457600080fd5b81356105b4848260208601610555565b91505092915050565b6000602082840312156105cf57600080fd5b600082013567ffffffffffffffff8111156105e957600080fd5b6105f584828501610593565b91505092915050565b610607816107ea565b82525050565b610616816107fc565b82525050565b6000610627826107ce565b61063181856107d9565b9350610641818560208601610837565b61064a816108fa565b840191505092915050565b6000610662601b836107d9565b91507f537069726f2063616e6e6f74207369676e2061732052617069646f00000000006000830152602082019050919050565b60006106a26018836107d9565b91507f4f6e6c7920537069726f2063616e207369676e207468697300000000000000006000830152602082019050919050565b60006020820190506106ea60008301846105fe565b92915050565b6000602082019050610705600083018461060d565b92915050565b60006020820190508181036000830152610725818461061c565b905092915050565b6000602082019050818103600083015261074681610655565b9050919050565b6000602082019050818103600083015261076681610695565b9050919050565b6000604051905081810181811067ffffffffffffffff82111715610794576107936108cb565b5b8060405250919050565b600067ffffffffffffffff8211156107b9576107b86108cb565b5b601f19601f8301169050602081019050919050565b600081519050919050565b600082825260208201905092915050565b60006107f582610808565b9050919050565b60008115159050919050565b600073ffffffffffffffffffffffffffffffffffffffff82169050919050565b82818337600083830152505050565b60005b8381101561085557808201518184015260208101905061083a565b83811115610864576000848401525b50505050565b6000600282049050600182168061088257607f821691505b602082108114156108965761089561089c565b5b50919050565b7f4e487b7100000000000000000000000000000000000000000000000000000000600052602260045260246000fd5b7f4e487b7100000000000000000000000000000000000000000000000000000000600052604160045260246000fd5b6000601f19601f830116905091905056fea2646970667358221220a922fd039e7607320c2692024dd5954ab5ce8ce6fbfe0be1f9984520479bf46764736f6c63430008000033",
  "immutableReferences": {},
  "source": "// SPDX-License-Identifier: MIT\r\npragma solidity ^0.8.0;\r\n\r\ncontract SpiroRapidoAgreement {\r\n    address public spiro;\r\n    address public rapido;\r\n    string public agreementHash;\r\n    bool public spiroSigned;\r\n    bool public rapidoSigned;\r\n\r\n    event AgreementSigned(address signer);\r\n\r\n    constructor() {\r\n        spiro = msg.sender;\r\n    }\r\n\r\n    function signAsSpiro(string memory _agreementHash) public {\r\n        require(msg.sender == spiro, \"Only Spiro can sign this\");\r\n        agreementHash = _agreementHash;\r\n        spiroSigned = true;\r\n        emit AgreementSigned(msg.sender);\r\n    }\r\n\r\n    function signAsRapido() public {\r\n        require(msg.sender != spiro, \"Spiro cannot sign as Rapido\");\r\n        rapido = msg.sender;\r\n        rapidoSigned = true;\r\n        emit AgreementSigned(msg.sender);\r\n    }\r\n\r\n    function isAgreementComplete() public view returns (bool) {\r\n        return spiroSigned && rapidoSigned;\r\n    }\r\n}",
  "sourcePath": "C:\\Users\\jatin.choubey\\SLA_Smart_Contract\\contracts\\SpiroRapidoAgreement.sol",
  "compiler": {
    "name": "solc",
    "version": "0.8.0+commit.c7dfd78e.Emscripten.clang"
  },
  "schemaVersion": "3.4.16",
  "updatedAt": "2024-11-28T06:28:02.282Z",
  "networkType": "ethereum",
  "devdoc": {
    "kind": "dev",
    "methods": {},
    "version": 1
  },
  "userdoc": {
    "kind": "user",
    "methods": {},
    "version": 1
  }
}