{
  "contractName": "SpiroRapidoAgreement",
  "abi": [
    {
      "inputs": [],
      "stateMutability": "nonpayable",
      "type": "constructor"
    },
    {
      "anonymous": false,
      "inputs": [
        {
          "indexed": false,
          "internalType": "address",
          "name": "signer",
          "type": "address"
        }
      ],
      "name": "AgreementSigned",
      "type": "event"
    },
    {
      "inputs": [],
      "name": "SLA_Hash",
      "outputs": [
        {
          "internalType": "string",
          "name": "",
          "type": "string"
        }
      ],
      "stateMutability": "view",
      "type": "function",
      "constant": true
    },
    {
      "inputs": [],
      "name": "agreementHash",
      "outputs": [
        {
          "internalType": "string",
          "name": "",
          "type": "string"
        }
      ],
      "stateMutability": "view",
      "type": "function",
      "constant": true
    },
    {
      "inputs": [],
      "name": "ipfsCID",
      "outputs": [
        {
          "internalType": "string",
          "name": "",
          "type": "string"
        }
      ],
      "stateMutability": "view",
      "type": "function",
      "constant": true
    },
    {
      "inputs": [],
      "name": "rapido",
      "outputs": [
        {
          "internalType": "address",
          "name": "",
          "type": "address"
        }
      ],
      "stateMutability": "view",
      "type": "function",
      "constant": true
    },
    {
      "inputs": [],
      "name": "rapidoSigned",
      "outputs": [
        {
          "internalType": "bool",
          "name": "",
          "type": "bool"
        }
      ],
      "stateMutability": "view",
      "type": "function",
      "constant": true
    },
    {
      "inputs": [],
      "name": "spiro",
      "outputs": [
        {
          "internalType": "address",
          "name": "",
          "type": "address"
        }
      ],
      "stateMutability": "view",
      "type": "function",
      "constant": true
    },
    {
      "inputs": [],
      "name": "spiroSigned",
      "outputs": [
        {
          "internalType": "bool",
          "name": "",
          "type": "bool"
        }
      ],
      "stateMutability": "view",
      "type": "function",
      "constant": true
    },
    {
      "inputs": [
        {
          "internalType": "string",
          "name": "_agreementHash",
          "type": "string"
        }
      ],
      "name": "signAsSpiro",
      "outputs": [],
      "stateMutability": "nonpayable",
      "type": "function"
    },
    {
      "inputs": [],
      "name": "signAsRapido",
      "outputs": [],
      "stateMutability": "nonpayable",
      "type": "function"
    },
    {
      "inputs": [],
      "name": "isAgreementComplete",
      "outputs": [
        {
          "internalType": "bool",
          "name": "",
          "type": "bool"
        }
      ],
      "stateMutability": "view",
      "type": "function",
      "constant": true
    }
  ],
  "bytecode": "0x60806040526040518060600160405280602e815260200162000c90602e91396004908051906020019062000035929190620000bc565b5060405180606001604052806040815260200162000cbe604091396005908051906020019062000067929190620000bc565b503480156200007557600080fd5b50336000806101000a81548173ffffffffffffffffffffffffffffffffffffffff021916908373ffffffffffffffffffffffffffffffffffffffff160217905550620001d1565b828054620000ca906200016c565b90600052602060002090601f016020900481019282620000ee57600085556200013a565b82601f106200010957805160ff19168380011785556200013a565b828001600101855582156200013a579182015b82811115620001395782518255916020019190600101906200011c565b5b5090506200014991906200014d565b5090565b5b80821115620001685760008160009055506001016200014e565b5090565b600060028204905060018216806200018557607f821691505b602082108114156200019c576200019b620001a2565b5b50919050565b7f4e487b7100000000000000000000000000000000000000000000000000000000600052602260045260246000fd5b610aaf80620001e16000396000f3fe608060405234801561001057600080fd5b506004361061009e5760003560e01c806391d373161161006657806391d37316146101255780639c4ee67c14610143578063b751f24314610161578063c7849bea1461017d578063d696b3f11461019b5761009e565b80630ab55d0b146100a357806349fc73dd146100c15780634aeff0d3146100df5780635346d185146100e95780636674e6b414610107575b600080fd5b6100ab6101b9565b6040516100b89190610879565b60405180910390f35b6100c9610247565b6040516100d69190610879565b60405180910390f35b6100e76102d5565b005b6100f16103f9565b6040516100fe919061085e565b60405180910390f35b61010f61040c565b60405161011c9190610843565b60405180910390f35b61012d610430565b60405161013a9190610843565b60405180910390f35b61014b610456565b604051610158919061085e565b60405180910390f35b61017b6004803603810190610176919061072b565b610485565b005b61018561057f565b6040516101929190610879565b60405180910390f35b6101a361060d565b6040516101b0919061085e565b60405180910390f35b600280546101c6906109d8565b80601f01602080910402602001604051908101604052809291908181526020018280546101f2906109d8565b801561023f5780601f106102145761010080835404028352916020019161023f565b820191906000526020600020905b81548152906001019060200180831161022257829003601f168201915b505050505081565b60048054610254906109d8565b80601f0160208091040260200160405190810160405280929190818152602001828054610280906109d8565b80156102cd5780601f106102a2576101008083540402835291602001916102cd565b820191906000526020600020905b8154815290600101906020018083116102b057829003601f168201915b505050505081565b60008054906101000a900473ffffffffffffffffffffffffffffffffffffffff1673ffffffffffffffffffffffffffffffffffffffff163373ffffffffffffffffffffffffffffffffffffffff161415610364576040517f08c379a000000000000000000000000000000000000000000000000000000000815260040161035b9061089b565b60405180910390fd5b33600160006101000a81548173ffffffffffffffffffffffffffffffffffffffff021916908373ffffffffffffffffffffffffffffffffffffffff1602179055506001600360016101000a81548160ff0219169083151502179055507f5cca47fc45be2c2c68100afd7cd2431116c0c535c159e4f6c7e63934cf9f7aad336040516103ef9190610843565b60405180910390a1565b600360009054906101000a900460ff1681565b60008054906101000a900473ffffffffffffffffffffffffffffffffffffffff1681565b600160009054906101000a900473ffffffffffffffffffffffffffffffffffffffff1681565b6000600360009054906101000a900460ff1680156104805750600360019054906101000a900460ff165b905090565b60008054906101000a900473ffffffffffffffffffffffffffffffffffffffff1673ffffffffffffffffffffffffffffffffffffffff163373ffffffffffffffffffffffffffffffffffffffff1614610513576040517f08c379a000000000000000000000000000000000000000000000000000000000815260040161050a906108bb565b60405180910390fd5b8060029080519060200190610529929190610620565b506001600360006101000a81548160ff0219169083151502179055507f5cca47fc45be2c2c68100afd7cd2431116c0c535c159e4f6c7e63934cf9f7aad336040516105749190610843565b60405180910390a150565b6005805461058c906109d8565b80601f01602080910402602001604051908101604052809291908181526020018280546105b8906109d8565b80156106055780601f106105da57610100808354040283529160200191610605565b820191906000526020600020905b8154815290600101906020018083116105e857829003601f168201915b505050505081565b600360019054906101000a900460ff1681565b82805461062c906109d8565b90600052602060002090601f01602090048101928261064e5760008555610695565b82601f1061066757805160ff1916838001178555610695565b82800160010185558215610695579182015b82811115610694578251825591602001919060010190610679565b5b5090506106a291906106a6565b5090565b5b808211156106bf5760008160009055506001016106a7565b5090565b60006106d66106d18461090c565b6108db565b9050828152602081018484840111156106ee57600080fd5b6106f9848285610996565b509392505050565b600082601f83011261071257600080fd5b81356107228482602086016106c3565b91505092915050565b60006020828403121561073d57600080fd5b600082013567ffffffffffffffff81111561075757600080fd5b61076384828501610701565b91505092915050565b61077581610958565b82525050565b6107848161096a565b82525050565b60006107958261093c565b61079f8185610947565b93506107af8185602086016109a5565b6107b881610a68565b840191505092915050565b60006107d0601b83610947565b91507f537069726f2063616e6e6f74207369676e2061732052617069646f00000000006000830152602082019050919050565b6000610810601883610947565b91507f4f6e6c7920537069726f2063616e207369676e207468697300000000000000006000830152602082019050919050565b6000602082019050610858600083018461076c565b92915050565b6000602082019050610873600083018461077b565b92915050565b60006020820190508181036000830152610893818461078a565b905092915050565b600060208201905081810360008301526108b4816107c3565b9050919050565b600060208201905081810360008301526108d481610803565b9050919050565b6000604051905081810181811067ffffffffffffffff8211171561090257610901610a39565b5b8060405250919050565b600067ffffffffffffffff82111561092757610926610a39565b5b601f19601f8301169050602081019050919050565b600081519050919050565b600082825260208201905092915050565b600061096382610976565b9050919050565b60008115159050919050565b600073ffffffffffffffffffffffffffffffffffffffff82169050919050565b82818337600083830152505050565b60005b838110156109c35780820151818401526020810190506109a8565b838111156109d2576000848401525b50505050565b600060028204905060018216806109f057607f821691505b60208210811415610a0457610a03610a0a565b5b50919050565b7f4e487b7100000000000000000000000000000000000000000000000000000000600052602260045260246000fd5b7f4e487b7100000000000000000000000000000000000000000000000000000000600052604160045260246000fd5b6000601f19601f830116905091905056fea264697066735822122072456511c022f119296d961417b6471e2ccf1c3a6b434f4d5d8f7ec5227b3f8864736f6c63430008000033516d545a62766b413957733936655a503579356433527255735875686f774b466b5175784151565876587666356537463439323532363230383333364430443632433742303639463331323932443446384237333537463845434131423231354442353445393039424545343046",
  "immutableReferences": {},
  "source": "// SPDX-License-Identifier: MIT\r\npragma solidity ^0.8.0;\r\n\r\ncontract SpiroRapidoAgreement {\r\n    address public spiro;\r\n    address public rapido;\r\n    string public agreementHash;\r\n    bool public spiroSigned;\r\n    bool public rapidoSigned;\r\n    string public ipfsCID = \"QmTZbvkA9Ws96eZP5y5d3RrUsXuhowKFkQuxAQVXvXvf5e\";\r\n    string public SLA_Hash = \"7F492526208336D0D62C7B069F31292D4F8B7357F8ECA1B215DB54E909BEE40F\";\r\n\r\n    event AgreementSigned(address signer);\r\n\r\n    constructor() {\r\n        spiro = msg.sender;\r\n    }\r\n\r\n    function signAsSpiro(string memory _agreementHash) public {\r\n        require(msg.sender == spiro, \"Only Spiro can sign this\");\r\n        agreementHash = _agreementHash;\r\n        spiroSigned = true;\r\n        emit AgreementSigned(msg.sender);\r\n    }\r\n\r\n    function signAsRapido() public {\r\n        require(msg.sender != spiro, \"Spiro cannot sign as Rapido\");\r\n        rapido = msg.sender;\r\n        rapidoSigned = true;\r\n        emit AgreementSigned(msg.sender);\r\n    }\r\n\r\n    function isAgreementComplete() public view returns (bool) {\r\n        return spiroSigned && rapidoSigned;\r\n    }\r\n}",
  "sourcePath": "C:\\Users\\jatin.choubey\\SLA_Smart_Contract\\contracts\\SpiroRapidoAgreement.sol",
  "compiler": {
    "name": "solc",
    "version": "0.8.0+commit.c7dfd78e.Emscripten.clang"
  },
  "schemaVersion": "3.4.16",
  "updatedAt": "2024-11-28T10:05:50.107Z",
  "networkType": "ethereum",
  "devdoc": {
    "kind": "dev",
    "methods": {},
    "version": 1
  },
  "userdoc": {
    "kind": "user",
    "methods": {},
    "version": 1
  }
}